:100000000C945D000C9485000C9485000C94850084
:100010000C9485000C9485000C9485000C9485004C
:100020000C9485000C9485000C9485000C9485003C
:100030000C9485000C9485000C9485000C9485002C
:100040000C949A020C9485000C9485000C94850005
:100050000C9485000C9485000C9485000C9485000C
:100060000C9485000C9485000000000024002700FB
:100070002A0000000000250028002B0004040404CE
:100080000404040402020202020203030303030342
:10009000010204081020408001020408102001021F
:1000A00004081020000000080002010000030407FB
:1000B0000000000000000000A80311241FBECFEFC5
:1000C000D8E0DEBFCDBF11E0A0E0B1E0E6EEF7E0A2
:1000D00002C005900D92AC30B107D9F721E0ACE039
:1000E000B1E001C01D92AD32B207E1F710E0CDE5FD
:1000F000D0E004C02197FE010E94E603CC35D10771
:10010000C9F70E94E4020C94F1030C94000090E003
:10011000FC01EC55FF4F2491FC01E057FF4F349157
:10012000FC01E458FF4FE491EE2309F43CC0222384
:1001300039F1233091F038F42130A9F0223001F563
:1001400084B58F7D12C0273091F02830A1F0243083
:10015000B9F4809180008F7D03C0809180008F77FB
:10016000809380000DC084B58F7784BD09C08091D5
:10017000B0008F7703C08091B0008F7D8093B00076
:10018000F0E0EE0FFF1FEE58FF4FA591B4919FB71F
:10019000F894611104C08C913095382302C0EC9121
:1001A0003E2B3C939FBF0895CF93DF9390E0FC01DB
:1001B000E057FF4F2491FC01E458FF4F84918823BE
:1001C00061F190E0880F991FFC01E859FF4FC5913C
:1001D000D491FC01EE58FF4FA591B491611109C073
:1001E0009FB7F8948881209582238883EC912E23F1
:1001F0000BC0623061F49FB7F8948881322F30953C
:1002000083238883EC912E2B2C939FBF06C08FB73E
:10021000F894E8812E2B28838FBFDF91CF9108952A
:10022000CF92DF92EF92FF920F931F93CF93DF93C2
:100230006C017A018B01C0E0D0E0CE15DF0581F0C2
:10024000D8016D918D01D601ED91FC910190F08165
:10025000E02DC6010995892B11F02196EECF7E0184
:10026000C701DF91CF911F910F91FF90EF90DF9029
:10027000CF900895CF93DF93EC0160E08E810E94D0
:10028000870061E08E810E94870060E08E810E947D
:1002900087008BE891E00197F1F7DF91CF91089506
:1002A000CF92DF92EF92FF920F931F93CF93DF9342
:1002B0006C017C0187E0E80EF11CC0E0D0E0062F65
:1002C00010E0B8010C2E02C0759567950A94E2F70C
:1002D0006170F70181917F010E9487002196C430EF
:1002E000D10579F7C601DF91CF911F910F91FF9052
:1002F000EF90DF90CF900C943A01CF92DF92EF9283
:10030000FF920F931F93CF93DF93EC01F62E642F90
:100310008C810E9487008D818F3F19F060E00E94E0
:1003200087008F850F2D10E084FF25C06E0187E0C8
:10033000C80ED11CE12CF12CB8010E2C02C0759511
:1003400067950A94E2F76170F60181916F010E944E
:100350008700FFEFEF1AFF0A88E0E816F10461F763
:10036000CE01DF91CF911F910F91FF90EF90DF9021
:10037000CF900C943A01B80184E0759567958A9501
:10038000E1F7CE010E9450016F2DCE01DF91CF9198
:100390001F910F91FF90EF90DF90CF900C94500140
:1003A00040E0682F85E191E00C947D01CF93DF93CD
:1003B000823028F0909124019860909324018093DA
:1003C00028011092290180E480932A0180E1809322
:1003D0002B0180E580932C0161E0809119010E943E
:1003E000D40080911A018F3F19F061E00E94D4007F
:1003F00061E080911B010E94D400C5E1D1E09E0123
:10040000255131408091240184FD03C084E090E0B7
:1004100002C088E090E02196281739072CF461E0AB
:100420008E810E94D400EBCF8BE39DE00197F1F722
:1004300060E0809119010E94870060E080911B01BB
:100440000E94870080911A018F3F19F060E00E949E
:1004500087008091240184FD20C063E085E191E064
:100460000E945001CBE4D6E4CE010197F1F763E09E
:1004700085E191E00E9450012197F1F763E085E169
:1004800091E00E94500183E592E00197F1F762E06C
:1004900085E191E00E94500115C080620E94D00168
:1004A0008BE496E40197F1F78091240180620E9429
:1004B000D00183E592E00197F1F7809124018062F9
:1004C0000E94D0018091240180620E94D00184E0CA
:1004D000809325018CE00E94D00181E00E94D00130
:1004E0008BE39FE10197F1F782E08093260186E09C
:1004F000DF91CF910C94D00141E00E947D0181E019
:1005000090E00895089580E090E00895009769F0E4
:10051000FC0101900020E9F73197AF01481B590B0E
:10052000BC0185E191E00C94100180E090E0089519
:100530000E94EC031F920F920FB60F9211242F937B
:100540003F938F939F93AF93BF93809111019091AD
:100550001201A0911301B09114013091100123E018
:10056000230F2D3720F40196A11DB11D05C026E8EB
:10057000230F0296A11DB11D20931001809311013C
:1005800090931201A0931301B093140180910C0178
:1005900090910D01A0910E01B0910F010196A11D46
:1005A000B11D80930C0190930D01A0930E01B093A7
:1005B0000F01BF91AF919F918F913F912F910F901C
:1005C0000FBE0F901F901895CF93DF93CDB7DEB776
:1005D000A1970FB6F894DEBF0FBECDBF789484B557
:1005E000826084BD84B5816084BD85B5826085BD2F
:1005F00085B5816085BD80916E00816080936E00BD
:1006000010928100809181008260809381008091AE
:10061000810081608093810080918000816080935F
:1006200080008091B10084608093B1008091B0001F
:1006300081608093B00080917A00846080937A001A
:1006400080917A00826080937A0080917A00816044
:1006500080937A0080917A00806880937A0010926B
:10066000C10060E08EE00E94D40082E00E94D601CA
:1006700080E4D82E9AE0892E912CA12CB12C20E078
:10068000E22E20E0F22EE1E0809128018111E0E0ED
:10069000E195F0E0EB5EFE4F848980680E94D00116
:1006A000D0927C0080917A00806480937A0080915F
:1006B0007A0086FDFCCF809178002091790090E04F
:1006C000922B2C01092E000C6608770897FF21C099
:1006D00041E06DE285E191E00E947D012227332710
:1006E000A901241935094609570919A28E010F5D80
:1006F0001F4FCA01B901A50194010E94C403605DA6
:10070000F80162938F01211531054105510589F7E3
:1007100015C0A301920119A28E010F5D1F4FCA01DE
:10072000B901A50194010E94C403605DF8016293C0
:100730008F01211531054105510589F7C8010E9436
:100740008602E114F10409F49ECF0E9400009BCFC1
:10075000E5E1F1E01382128284E091E091838083ED
:100760008AE084838FEF858388E0868383E08783B4
:1007700082E0808781E08187128613861486158641
:10078000168617860C94D601A1E21A2EAA1BBB1B53
:10079000FD010DC0AA1FBB1FEE1FFF1FA217B3074D
:1007A000E407F50720F0A21BB30BE40BF50B661F63
:1007B000771F881F991F1A9469F760957095809527
:1007C00090959B01AC01BD01CF010895EE0FFF1F75
:1007D0000590F491E02D099481E090E0F8940C9458
:0607E000F103F894FFCFC5
:0C07E600000000007C021001830282026F
:107E0000112484B714BE81FFF0D085E080938100F7
:107E100082E08093C00088E18093C10086E0809377
:107E2000C20080E18093C4008EE0C9D0259A86E02C
:107E300020E33CEF91E0309385002093840096BBD3
:107E4000B09BFECF1D9AA8958150A9F7CC24DD24C4
:107E500088248394B5E0AB2EA1E19A2EF3E0BF2EE7
:107E6000A2D0813461F49FD0082FAFD0023811F036
:107E7000013811F484E001C083E08DD089C08234E0
:107E800011F484E103C0853419F485E0A6D080C0E4
:107E9000853579F488D0E82EFF2485D0082F10E0AE
:107EA000102F00270E291F29000F111F8ED06801E7
:107EB0006FC0863521F484E090D080E0DECF843638
:107EC00009F040C070D06FD0082F6DD080E0C81688
:107ED00080E7D80618F4F601B7BEE895C0E0D1E017
:107EE00062D089930C17E1F7F0E0CF16F0E7DF06D8
:107EF00018F0F601B7BEE89568D007B600FCFDCFD4
:107F0000A601A0E0B1E02C9130E011968C91119780
:107F100090E0982F8827822B932B1296FA010C0160
:107F200087BEE89511244E5F5F4FF1E0A038BF0790
:107F300051F7F601A7BEE89507B600FCFDCF97BE46
:107F4000E89526C08437B1F42ED02DD0F82E2BD052
:107F50003CD0F601EF2C8F010F5F1F4F84911BD097
:107F6000EA94F801C1F70894C11CD11CFA94CF0C13
:107F7000D11C0EC0853739F428D08EE10CD085E9AC
:107F80000AD08FE07ACF813511F488E018D01DD067
:107F900080E101D065CF982F8091C00085FFFCCF94
:107FA0009093C60008958091C00087FFFCCF809118
:107FB000C00084FD01C0A8958091C6000895E0E648
:107FC000F0E098E1908380830895EDDF803219F02E
:107FD00088E0F5DFFFCF84E1DECF1F93182FE3DFCA
:107FE0001150E9F7F2DF1F91089580E0E8DFEE27F6
:047FF000FF270994CA
:027FFE00040479
:0400000300007E007B
:00000001FF
