:100000000C9462000C948A000C948A000C948A0070
:100010000C948A000C948A000C948A000C948A0038
:100020000C948A000C948A000C948A000C948A0028
:100030000C948A000C948A000C948A000C948A0018
:100040000C9405020C948A000C9475020C944F02D7
:100050000C948A000C948A000C948A000C948A00F8
:100060000C948A000C948A000000000024002700F1
:100070002A000000000023002600290000000000E4
:10008000250028002B0004040404040404040202D4
:100090000202020203030303030301020408102007
:1000A0004080010204081020010204081020000012
:1000B0000008000201000003040700000000000027
:1000C0000000BF0311241FBECFEFD8E0DEBFCDBFBD
:1000D00011E0A0E0B1E0E6E3F8E002C005900D9287
:1000E000A631B107D9F721E0A6E1B1E001C01D9228
:1000F000AC3BB207E1F710E0C2E6D0E004C02197C4
:10010000FE010E940E04C136D107C9F70E94A70262
:100110000C9419040C940000833081F028F4813091
:1001200099F08230A1F008958730A9F08830B9F0B5
:100130008430D1F4809180008F7D03C08091800055
:100140008F7780938000089584B58F7702C084B53F
:100150008F7D84BD08958091B0008F7703C080911A
:10016000B0008F7D8093B00008951F93CF93DF93ED
:10017000EBEBF0E09491E7EAF0E0D491E3E9F0E012
:10018000C491CC23D1F0182F992319F0892F0E9404
:100190008C00EC2FF0E0EE0FFF1FE458FF4FA5910D
:1001A000B4919FB7F894111104C08C91D095D823C5
:1001B00002C0EC91DE2BDC939FBFDF91CF911F91AA
:1001C0000895CF92DF92EF92FF920F931F93CF93F8
:1001D000DF936C017A018B01C0E0D0E0CE15DF0522
:1001E00081F0D8016D918D01D601ED91FC910190C6
:1001F000F081E02DC6010995892B11F02196EECFF3
:100200007E01C701DF91CF911F910F91FF90EF9079
:10021000DF90CF900895089580E090E00895FC016C
:10022000538D448D252F30E0842F90E0821B930B5B
:10023000541710F0CF96089501970895FC01918D01
:10024000828D981761F0828DDF01A80FB11D5D9638
:100250008C91928D9F5F9F73928F90E008958FEFA6
:100260009FEF0895FC01918D828D981731F0828D5A
:10027000E80FF11D858D90E008958FEF9FEF0895B1
:10028000FC01918D228D892F90E0805C9F4F821B15
:1002900091098F73992708958FE191E00E944001A1
:1002A00021E0892B09F420E0822F0895FC01848D40
:1002B000DF01A80FB11DA35ABF4F2C91848D90E090
:1002C00001968F739927848FA689B7892C93A0896B
:1002D000B1898C91837080648C93938D848D9813F5
:1002E00006C00288F389E02D80818F7D8083089588
:1002F000EF92FF920F931F93CF93DF93EC0181E076
:10030000888F9B8D8C8D981305C0E889F989808131
:1003100085FD26C0F62E0B8D10E00F5F1F4F0F736B
:100320001127E02E8C8DE8120CC00FB607FCFACF17
:10033000E889F989808185FFF5CFCE010E945601B9
:10034000F1CF8B8DFE01E80FF11DE35AFF4FF082D4
:100350009FB7F8940B8FEA89FB89808180620AC07D
:100360009FB7F894EE89FF896083E889F9898081D5
:100370008370806480839FBF81E090E0DF91CF91A4
:100380001F910F91FF90EF900895CF93DF93EC01B1
:10039000888D8823C9F0EA89FB89808185FD05C0A5
:1003A000A889B9898C9186FD0FC00FB607FCF5CFDF
:1003B000808185FFF2CFA889B9898C9185FFEDCF27
:1003C000CE010E945601E7CFDF91CF91089580E0E2
:1003D00090E0892B29F00E944C0181110C940000BF
:1003E0000895009769F0FC0101900020E9F731972A
:1003F000AF01481B590BBC018FE191E00C94E10067
:1004000080E090E008950E9414041F920F920FB6AE
:100410000F9211242F933F938F939F93AF93BF938A
:1004200080911B0190911C01A0911D01B0911E01B2
:1004300030911A0123E0230F2D3720F40196A11DDE
:10044000B11D05C026E8230F0296A11DB11D209302
:100450001A0180931B0190931C01A0931D01B0937E
:100460001E018091160190911701A0911801B09181
:1004700019010196A11DB11D8093160190931701DA
:10048000A0931801B0931901BF91AF919F918F91E3
:100490003F912F910F900FBE0F901F9018951F92B4
:1004A0000F920FB60F9211242F933F934F935F93A8
:1004B0006F937F938F939F93AF93BF93EF93FF932C
:1004C0008FE191E00E945601FF91EF91BF91AF91B2
:1004D0009F918F917F916F915F914F913F912F915C
:1004E0000F900FBE0F901F9018951F920F920FB68E
:1004F0000F9211242F938F939F93EF93FF93E0918B
:100500002F01F09130018081E0913501F0913601A9
:1005100082FD12C09081809138018F5F8F7320918E
:100520003901821751F0E0913801F0E0E15EFE4FB1
:10053000958F8093380101C08081FF91EF919F9149
:100540008F912F910F900FBE0F901F901895CF9302
:10055000DF93CDB7DEB7A1970FB6F894DEBF0FBE1D
:10056000CDBF789484B5826084BD84B5816084BD3C
:1005700085B5826085BD85B5816085BD80916E0041
:10058000816080936E001092810080918100826072
:1005900080938100809181008160809381008091AF
:1005A00080008160809380008091B100846080939E
:1005B000B1008091B00081608093B00080917A009A
:1005C000846080937A0080917A00826080937A00C0
:1005D00080917A00816080937A0080917A008068AF
:1005E00080937A001092C100E0912F01F0913001C8
:1005F00082E08083E0912B01F0912C011082E09148
:100600002D01F0912E018FEC808310923701E09143
:100610003301F091340186E08083E0913101F09163
:100620003201808180618083E0913101F09132015B
:10063000808188608083E0913101F0913201808176
:1006400080688083E0913101F091320180818F7D5B
:1006500080830CE910E0F801449168E8E62E60E040
:10066000F62EF70184918823C9F090E0880F991F36
:10067000FC01E859FF4FA591B491FC01E458FF4FEC
:10068000259134915FB7F8949C91842F809598239D
:100690009C93F9018081842B80835FBFE7EAF0E0BF
:1006A0002491E3E9F0E08491882399F090E0880FA9
:1006B000991FFC01E859FF4FA591B491FC01E45842
:1006C000FF4F859194918FB7F894EC91E22BEC93C6
:1006D0008FBF90EB892E90E0992E2AE0422E512C6C
:1006E000612C712CF4018491F801D490F701C4902D
:1006F000CC20A1F081110E948C00EC2DF0E0EE0FD7
:10070000FF1FEE58FF4FA591B4918C91D82291E034
:1007100080E009F490E0C92ED82E02C0C12CD12C63
:1007200096010D2C000C440B550B19A25E01F1E251
:10073000AF0EB11CCA01B901A30192010E94EC03E2
:10074000605DF50162935F01211531054105510599
:1007500089F7CF010E94F10142E050E062E171E0CF
:100760008FE191E00E94E100CA94CD2811F480E06D
:1007700001C081E00E94B5000E94E701B3CFEFE124
:10078000F1E01382128288EE93E0A0E0B0E084836F
:100790009583A683B78384E091E09183808385EC81
:1007A00090E09587848784EC90E09787868780EC3B
:1007B00090E0918B808B81EC90E0938B828B82EC2C
:1007C00090E0958B848B86EC90E0978B868B118ED6
:1007D000128E138E148E0895A1E21A2EAA1BBB1B33
:1007E000FD010DC0AA1FBB1FEE1FFF1FA217B307FD
:1007F000E407F50720F0A21BB30BE40BF50B661F13
:10080000771F881F991F1A9469F7609570958095D6
:1008100090959B01AC01BD01CF010895EE0FFF1F24
:100820000590F491E02D099481E090E0F8940C9407
:060830001904F894FFCF4B
:10083600000000007801E1000F01C50140011E0122
:0608460032010D0A000062
:107E0000112484B714BE81FFF0D085E080938100F7
:107E100082E08093C00088E18093C10086E0809377
:107E2000C20080E18093C4008EE0C9D0259A86E02C
:107E300020E33CEF91E0309385002093840096BBD3
:107E4000B09BFECF1D9AA8958150A9F7CC24DD24C4
:107E500088248394B5E0AB2EA1E19A2EF3E0BF2EE7
:107E6000A2D0813461F49FD0082FAFD0023811F036
:107E7000013811F484E001C083E08DD089C08234E0
:107E800011F484E103C0853419F485E0A6D080C0E4
:107E9000853579F488D0E82EFF2485D0082F10E0AE
:107EA000102F00270E291F29000F111F8ED06801E7
:107EB0006FC0863521F484E090D080E0DECF843638
:107EC00009F040C070D06FD0082F6DD080E0C81688
:107ED00080E7D80618F4F601B7BEE895C0E0D1E017
:107EE00062D089930C17E1F7F0E0CF16F0E7DF06D8
:107EF00018F0F601B7BEE89568D007B600FCFDCFD4
:107F0000A601A0E0B1E02C9130E011968C91119780
:107F100090E0982F8827822B932B1296FA010C0160
:107F200087BEE89511244E5F5F4FF1E0A038BF0790
:107F300051F7F601A7BEE89507B600FCFDCF97BE46
:107F4000E89526C08437B1F42ED02DD0F82E2BD052
:107F50003CD0F601EF2C8F010F5F1F4F84911BD097
:107F6000EA94F801C1F70894C11CD11CFA94CF0C13
:107F7000D11C0EC0853739F428D08EE10CD085E9AC
:107F80000AD08FE07ACF813511F488E018D01DD067
:107F900080E101D065CF982F8091C00085FFFCCF94
:107FA0009093C60008958091C00087FFFCCF809118
:107FB000C00084FD01C0A8958091C6000895E0E648
:107FC000F0E098E1908380830895EDDF803219F02E
:107FD00088E0F5DFFFCF84E1DECF1F93182FE3DFCA
:107FE0001150E9F7F2DF1F91089580E0E8DFEE27F6
:047FF000FF270994CA
:027FFE00040479
:0400000300007E007B
:00000001FF
