:100000000C945D000C9485000C9485000C94850084
:100010000C9485000C9485000C9485000C9485004C
:100020000C9485000C9485000C9485000C9485003C
:100030000C9485000C9485000C9485000C9485002C
:100040000C94FF040C9485000C946F050C944905E6
:100050000C9485000C9485000C9485000C9485000C
:100060000C94A1050C9485000000000024002700DA
:100070002A0000000000250028002B0004040404CE
:100080000404040402020202020203030303030342
:10009000010204081020408001020408102001021F
:1000A00004081020000000080002010000030407FB
:1000B0000000000000000000C00611241FBECFEFAA
:1000C000D8E0DEBFCDBF11E0A0E0B1E0E0EFF4E1A9
:1000D00002C005900D92AA34B107D9F722E0AAE434
:1000E000B1E001C01D92A43CB207E1F710E0CDE5FC
:1000F000D0E004C02197FE010E94700ACC35D107E0
:10010000C9F70E940A070C94760A0C94000090E04C
:10011000FC01EC55FF4F2491FC01E057FF4F349157
:10012000FC01E458FF4FE491EE23C9F0222339F09B
:10013000233001F1A8F4213019F1223029F1F0E047
:10014000EE0FFF1FEE58FF4FA591B4918FB7F894B3
:10015000EC91611126C030953E233C938FBF0895EA
:100160002730A9F02830C9F0243049F78091800069
:100170008F7D03C0809180008F7780938000DFCFD8
:1001800084B58F7784BDDBCF84B58F7DFBCF809125
:10019000B0008F778093B000D2CF8091B0008F7D78
:1001A000F9CF3E2BDACF3FB7F89480910B029091B4
:1001B0000C02A0910D02B0910E0226B5A89B05C0BD
:1001C0002F3F19F00196A11DB11D3FBFBA2FA92FD6
:1001D000982F8827BC01CD01620F711D811D911DD3
:1001E00042E0660F771F881F991F4A95D1F708953F
:1001F0008F929F92AF92BF92CF92DF92EF92FF9237
:100200004B015C010E94D3006B017C010E94D30072
:100210006C197D098E099F09683E7340810591051F
:10022000A8F321E0821A9108A108B10888EEC80E4F
:1002300083E0D81EE11CF11C81149104A104B104D7
:1002400029F7FF90EF90DF90CF90BF90AF909F90F5
:100250008F90089508950895AF92BF92CF92DF9244
:10026000EF92FF920F931F93CF93DF936C017B016B
:100270008B01040F151FEB015E01AE18BF08C017FC
:10028000D10759F06991D601ED91FC910190F0816F
:10029000E02DC6010995892B79F7C501DF91CF9132
:1002A0001F910F91FF90EF90DF90CF90BF90AF9094
:1002B0000895FC01538D448D252F30E0842F90E06C
:1002C000821B930B541710F0CF9608950197089551
:1002D000FC01918D828D981761F0A28DAE0FBF2F1A
:1002E000B11D5D968C91928D9F5F9F73928F90E070
:1002F00008958FEF9FEF0895FC01918D828D9817DF
:1003000031F0828DE80FF11D858D90E008958FEF1B
:100310009FEF0895FC01918D228D892F90E0805CE4
:100320009F4F821B91098F73992708958FE092E068
:100330000E948A0121E0892B09F420E0822F089590
:1003400080E090E0892B29F00E94960181110C94A5
:1003500000000895FC01A48DA80FB92FB11DA35A68
:10036000BF4F2C91848D90E001968F739927848FD5
:10037000A689B7892C93A089B1898C9183708064F8
:100380008C93938D848D981306C00288F389E02D99
:1003900080818F7D80830895EF92FF920F931F934A
:1003A000CF93DF93EC0181E0888F9B8D8C8D981328
:1003B0001AC0E889F989808185FF15C09FB7F89434
:1003C000EE89FF896083E889F98980818370806480
:1003D00080839FBF81E090E0DF91CF911F910F91CB
:1003E000FF90EF900895F62E0B8D10E00F5F1F4FDA
:1003F0000F731127E02E8C8D8E110CC00FB607FCE9
:10040000FACFE889F989808185FFF5CFCE010E9476
:10041000AA01F1CFEB8DEC0FFD2FF11DE35AFF4F39
:10042000F0829FB7F8940B8FEA89FB898081806204
:10043000CFCFCF93DF93EC01888D8823B9F0AA89C1
:10044000BB89E889F9898C9185FD03C0808186FD8F
:100450000DC00FB607FCF7CF8C9185FFF2CF8081DE
:1004600085FFEDCFCE010E94AA01E9CFDF91CF91A8
:1004700008952091B201260F3327331F2132310511
:10048000ECF42091D601FC0190E080E0243069F08A
:1004900082E00895A091B2012191AC014E565E4FC9
:1004A000A40FB52FB11D2C930196861798F3809158
:1004B000B201680F6093B20180E0089581E0089571
:1004C0001092D60181E08093D8011092D70161E0AB
:1004D00082E10E94870061E083E10E948700E9EBEE
:1004E000F0E080818E7F808380818D7F808388E4AF
:1004F0008093B80085E48093BC000895CF93DF9388
:1005000091E0909391018823B9F0C091B800D09107
:10051000BA008091BC008A7B8093BC0060E082E1DD
:100520000E94870060E083E10E9487000E946002D1
:10053000D093BA00C093B800DF91CF910895089589
:10054000E091030280910202E81730F4F0E0E459F0
:10055000FE4F808190E008958FEF9FEF0895909176
:100560000302809102022FEF3FEF981748F4E92F22
:10057000F0E0E459FE4F208130E09F5F909303024A
:10058000C90108958091020290910302891B990B81
:100590000895CF92DF92EF92FF920F931F93CF9324
:1005A000DF937C01CB018A0120916B01222389F02A
:1005B000EB016B01C40ED51ECC15DD0569F0699108
:1005C000D701ED91FC910190F081E02DC7010995D3
:1005D000F3CF642F0E943902C801DF91CF911F91A0
:1005E0000F91FF90EF90DF90CF900895CF93DF931E
:1005F0001F92CDB7DEB7698320916B012223F9F0FA
:1006000020910002203258F021E030E0FC013383D9
:10061000228390E080E00F90DF91CF910895809148
:100620000102E82FF0E0E55BFE4F998190838F5F38
:10063000809301028093000281E090E0ECCF61E0C2
:10064000CE0101960E943902F7CFCF92DF92EF924E
:10065000FF920F931F93CF93DF93FC01C48121E09E
:1006600020936B01C0934A01109201021092000284
:100670008385682B8CEA92E00E94F602D0910002FA
:10068000D13208F092C00E94D3006B017C018091AE
:10069000D601811165C082E08093D60181E080930C
:1006A000D8018FEF8093D5011092FA01D093F90110
:1006B000ABE4B1E0E9EDF1E080E0D81385C0109241
:1006C000FB018091FB01CC0FC82BC093FB018091F3
:1006D000D701813009F07CC01092D7010E94D3006D
:1006E0006B017C018091FB018093BB0080918D01A7
:1006F00090918E01A0918F01B0919001892B8A2B4E
:100700008B2B99F00E94D30000918D0110918E01E6
:1007100020918F01309190016C197D098E099F09FC
:100720000617170728073907E0F18091BC0083FD01
:10073000D9CF85EC8093BC000E94D3006B017C0173
:100740008091D601823009F445C08091D5018F3F58
:1007500061F18091D501803241F18091D50125C0B0
:1007600080918D0190918E01A0918F01B0919001A7
:10077000892B8A2B8B2B09F48ACF0E94D3000091FE
:100780008D0110918E0120918F01309190016C1993
:100790007D098E099F09061717072807390708F0F2
:1007A00076CF80918C010E947E02109201021092FD
:1007B000000210926B01DF91CF911F910F91FF907A
:1007C000EF90DF90CF9008959D9191938F5F75CFBB
:1007D00085EEB0CF80918D0190918E01A0918F0117
:1007E000B0919001892B8A2B8B2B09F4A9CF0E9401
:1007F000D30000918D0110918E0120918F013091D5
:1008000090016C197D098E099F09061717072807A3
:10081000390708F095CFC5CF089590E080E008959E
:100820008F929F92AF92BF920F931F93CF93DF93BC
:10083000CDB7DEB7A1970FB6F894DEBF0FBECDBF20
:1008400019A2423008F44AE08E010F5D1F4F842E3A
:10085000912CB12CA12CA50194010E944E0AE62FE7
:10086000B901CA01EA3044F5E05DD801EE938D018B
:10087000232B242B252B79F790E080E0109769F04B
:10088000FD0101900020E9F73197AF014A1B5B0B96
:10089000BD0188EB92E00E942C01A1960FB6F8945E
:1008A000DEBF0FBECDBFDF91CF911F910F91BF90E3
:1008B000AF909F908F900895E95CD7CF0F931F93CF
:1008C000CF938C01C62F0E9425036C2F6460C80152
:1008D0000E9425036C2F6B7FC8010E94250383ECC7
:1008E00090E00197F1F7CF911F910F9108950F9329
:1008F0001F93CF93DF938C01D62FC42F607F642B7F
:100900000E945E0480E1D89FB00111246C2BC801C5
:10091000DF91CF911F910F910C945E04CF93DF93E1
:10092000CDB7DEB728970FB6F894DEBF0FBECDBFA8
:1009300098E0E0E0F1E0DE01119601900D929A95C9
:10094000E1F79091C102961708F46FEF262F30E07F
:10095000220F331F41E050E04C0F5D1F240F351F65
:10096000F9016081680F606840E088EB92E02896AA
:100970000FB6F894DEBF0FBECDBFDF91CF910C94C0
:10098000770441E00E94770481E090E0089585EDCE
:100990008093BC0080918D0190918E01A0918F0178
:1009A000B09190010796A11DB11D23E0B695A795C2
:1009B000979587952A95D1F72091BC0024FD03C017
:1009C0001092D601089540918D0150918E01609151
:1009D0008F0170919001452B462B472B69F30097AF
:1009E000A105B10541F02AE22A95F1F700C001976F
:1009F000A109B109E1CF80918C010C947E021F9274
:100A00000F920FB60F9211242F933F938F939F93C2
:100A1000AF93BF938091070290910802A0910902C1
:100A2000B0910A023091060223E0230F2D3758F5CA
:100A30000196A11DB11D2093060280930702909399
:100A40000802A0930902B0930A0280910B029091D0
:100A50000C02A0910D02B0910E020196A11DB11DD4
:100A600080930B0290930C02A0930D02B0930E02A0
:100A7000BF91AF919F918F913F912F910F900FBE9A
:100A80000F901F90189526E8230F0296A11DB11D07
:100A9000D2CF1F920F920FB60F9211242F933F9334
:100AA0004F935F936F937F938F939F93AF93BF9376
:100AB000EF93FF938FE092E00E94AA01FF91EF91E4
:100AC000BF91AF919F918F917F916F915F914F9166
:100AD0003F912F910F900FBE0F901F9018951F926E
:100AE0000F920FB60F9211242F938F939F93EF9332
:100AF000FF93E0911F02F09120028081E091250296
:100B0000F091260282FD1BC09081809128028F5FA8
:100B10008F7320912902821741F0E0912802F0E0C2
:100B2000E15FFD4F958F80932802FF91EF919F9198
:100B30008F912F910F900FBE0F901F90189580816D
:100B4000F4CF1F920F920FB60F9211242F933F9361
:100B50004F935F936F937F938F939F93AF93BF93C5
:100B6000EF93FF938091B900887F803609F44AC0E3
:100B7000F0F5883209F4A7C018F5803109F49BC05C
:100B8000B8F4882309F4F9C0883009F494C0FF91BF
:100B9000EF91BF91AF919F918F917F916F915F91F5
:100BA0004F913F912F910F900FBE0F901F9018956E
:100BB000883109F488C0803251F78093D50114C080
:100BC000803409F49DC040F48033B9F38833F9F6DA
:100BD0008093D50185ECB0C0803509F485C0883597
:100BE00009F496C0883499F60E94C704D0CF88399A
:100BF00009F48CC038F5883729F050F4883611F0A4
:100C0000803729F683E08093D6011092D40157C033
:100C1000883809F47BC0803919F0803809F0B7CFE3
:100C20008091D401803208F071C0E091D40181E05C
:100C30008E0F8093D4018091BB00F0E0EC54FE4F06
:100C400080833DC0803B39F0E0F4803A09F479C0FC
:100C5000883A09F09CCF84E08093D6011092B301CA
:100C60001092B201E091FE01F091FF01099580918F
:100C7000B20181110FC081E08093B2011092920104
:100C800009C0803C09F4A6CF883C09F4A3CF883B77
:100C900009F07DCFE091B30181E08E0F8093B30125
:100CA000F0E0EE56FE4F80818093BB009091B3013F
:100CB0008091B20129C08091FB018093BB0085EC3B
:100CC0008093BC0064CF9091FA018091F90198174C
:100CD00058F5E091FA0181E08E0F8093FA01F0E07F
:100CE000E752FE4F8081E9CFE091FA0181E08E0F5B
:100CF0008093FA018091BB00F0E0E752FE4F8083C1
:100D00009091FA018091F9019817C8F285E8D8CF3F
:100D1000E091FA0181E08E0F8093FA018091BB008F
:100D2000F0E0E752FE4F80838091D80181115CCFC3
:100D300081E08093D70184EA8093BC001092D601B1
:100D400026CF85EC8093BC001092D6018091D4010F
:100D5000803230F4E091D401F0E0EC54FE4F108288
:100D60006091D40170E0E091FC01F091FD0184EB11
:100D700091E009951092D4010ACF1092D50134CF99
:100D8000EFE0F2E01382128288EE93E0A0E0B0E0A0
:100D900084839583A683B7832CE031E0318320835D
:100DA00025EC30E03587248724EC30E03787268730
:100DB00020EC30E0318B208B21EC30E0338B228B28
:100DC00022EC30E0358B248B26EC30E0378B268B01
:100DD000118E128E138E148EECEAF2E013821282C0
:100DE00084839583A683B7838EE191E0918380838A
:100DF000E8EBF2E01382128280E391E0918380833A
:100E000087E2848380E1808782E08187128688E0A0
:100E100083870895789484B5826084BD84B58160A9
:100E200084BD85B5826085BD85B5816085BD8091B5
:100E30006E00816080936E0010928100809181002D
:100E40008260809381008091810081608093810025
:100E5000809180008160809380008091B1008460E7
:100E60008093B1008091B00081608093B000809148
:100E70007A00846080937A0080917A008260809307
:100E80007A0080917A00816080937A0080917A0064
:100E9000806880937A001092C10010920302109231
:100EA000020210920102109200020E9460028AE285
:100EB00091E09093FF018093FE018BE291E090938B
:100EC000FD018093FC011092BD028091C10282302D
:100ED00018F098E09093BD029091C202992339F0E6
:100EE000813029F48091BD0284608093BD0262E369
:100EF00070E080E090E00E94F8006091C30288EB0F
:100F000092E00E94250368EE73E080E090E00E948A
:100F1000F80060E388EB92E00E945E04CBE4D6E444
:100F2000CE010197F1F760E388EB92E00E945E0446
:100F30002197F1F760E388EB92E00E945E0483E57D
:100F400092E00197F1F760E288EB92E00E945E0484
:100F50006091BD02606240E088EB92E00E947704FD
:100F600084E08093BE0240E06CE088EB92E00E9457
:100F7000770440E061E088EB92E00E947704CBE3E5
:100F8000DFE1CE010197F1F782E08093BF0240E0FC
:100F900066E088EB92E00E94770440E062E088EB34
:100FA00092E00E9477042197F1F7E1EAF0E02491C2
:100FB000EDE8F0E084918823C1F090E0880F991F5C
:100FC000FC01E859FF4FC591D491FC01EE58FF4F49
:100FD000A591B4919FB7F8948881E22FE0958E2374
:100FE00088838C91E823EC939FBFE0911F02F091DE
:100FF000200282E08083E0911B02F0911C021082AB
:10100000E0911D02F0911E028FEC80831092270266
:10101000E0912302F091240286E08083E091210296
:10102000F0912202808180618083E0912102F09121
:101030002202808188608083E0912102F091220267
:10104000808180688083E0912102F091220280817A
:101050008F7D808383E4B82ECBE3DFE100E010E0F6
:10106000B0927C0080917A00806480937A008091B5
:101070007A0086FDFCCF6091780070917900072E90
:10108000000C880B990B0E94550920E030E040ECE1
:1010900050E40E94E10920E030EC4FE754E40E9464
:1010A000AB080E941D09709305026093040260E082
:1010B00080E00E948E044EE050E068E371E088EB2F
:1010C00092E00E942C0161E086E00E948E0442E0E2
:1010D00050E067E471E088EB92E00E942C0161E04F
:1010E00080E00E948E04C0900402D09005020D2C76
:1010F000000CEE08FF084AE0C701B601F7FE0EC07B
:1011000041E06DE288EB92E00E9477046627772742
:10111000CB016C197D098E099F094AE00E941004D9
:1011200068EE73E080E090E00E94F80040E061E04B
:1011300088EB92E00E947704CE010197F1F7011548
:10114000110509F48DCF0E949601882309F488CFF8
:101150000E94000085CF0E94BF080C94A7090E943E
:10116000A00958F00E94990940F029F45F3F29F046
:101170000C94900951110C94DB090C9496090E946F
:10118000B80968F39923B1F3552391F3951B550BD7
:10119000BB27AA2762177307840738F09F5F5F4F4A
:1011A000220F331F441FAA1FA9F335D00E2E3AF089
:1011B000E0E832D091505040E695001CCAF72BD0A1
:1011C000FE2F29D0660F771F881FBB1F26173707F2
:1011D0004807AB07B0E809F0BB0B802DBF01FF2724
:1011E00093585F4F3AF09E3F510578F00C94900968
:1011F0000C94DB095F3FE4F3983ED4F38695779532
:101200006795B795F7959F5FC9F7880F911D9695DC
:10121000879597F90895E1E0660F771F881FBB1F38
:10122000621773078407BA0720F0621B730B840BE5
:10123000BA0BEE1F88F7E09508950E942409689480
:10124000B1110C94DB0908950E94C00988F09F57E2
:1012500098F0B92F9927B751B0F0E1F0660F771FDA
:10126000881F991F1AF0BA95C9F714C0B13091F0D0
:101270000E94DA09B1E008950C94DA09672F782FFB
:101280008827B85F39F0B93FCCF386957795679595
:10129000B395D9F73EF490958095709561957F4F01
:1012A0008F4F9F4F0895E89409C097FB3EF49095A7
:1012B0008095709561957F4F8F4F9F4F9923A9F02F
:1012C000F92F96E9BB279395F695879577956795BE
:1012D000B795F111F8CFFAF4BB0F11F460FF1BC002
:1012E0006F5F7F4F8F4F9F4F16C0882311F096E995
:1012F00011C0772321F09EE8872F762F05C0662343
:1013000071F096E8862F70E060E02AF09A95660FFB
:10131000771F881FDAF7880F9695879597F90895B4
:1013200097F99F6780E870E060E008959FEF80EC98
:10133000089500240A94161617061806090608953B
:1013400000240A9412161306140605060895092EA1
:101350000394000C11F4882352F0BB0F40F4BF2B10
:1013600011F460FF04C06F5F7F4F8F4F9F4F089550
:1013700057FD9058440F551F59F05F3F71F0479546
:10138000880F97FB991F61F09F3F79F0879508952B
:10139000121613061406551FF2CF4695F1DF08C04A
:1013A000161617061806991FF1CF86957105610567
:1013B00008940895E894BB2766277727CB0197F90F
:1013C00008950E94F4090C94A7090E94990938F025
:1013D0000E94A00920F0952311F00C9490090C9420
:1013E000960911240C94DB090E94B80970F3959FAB
:1013F000C1F3950F50E0551F629FF001729FBB270C
:10140000F00DB11D639FAA27F00DB11DAA1F649FA7
:101410006627B00DA11D661F829F2227B00DA11D5A
:10142000621F739FB00DA11D621F839FA00D611DE0
:10143000221F749F3327A00D611D231F849F600D01
:10144000211D822F762F6A2F11249F5750409AF02A
:10145000F1F088234AF0EE0FFF1FBB1F661F771FB6
:10146000881F91505040A9F79E3F510580F00C9481
:1014700090090C94DB095F3FE4F3983ED4F3869522
:1014800077956795B795F795E7959F5FC1F7FE2B21
:10149000880F911D9695879597F90895A1E21A2EC8
:1014A000AA1BBB1BFD010DC0AA1FBB1FEE1FFF1F08
:1014B000A217B307E407F50720F0A21BB30BE40B58
:1014C000F50B661F771F881F991F1A9469F760959F
:1014D0007095809590959B01AC01BD01CF01089559
:1014E000EE0FFF1F0590F491E02D0994F894FFCFC3
:1014F000000040001400540000000000CC012C014A
:10150000590119028A0168017C0100000000F602FD
:10151000C9020D049F02C202AF02A0020000000037
:10152000C1042C010D040C046A6172616B20706FA0
:0A15300074656E73696F00636D004F
:00000001FF
