:100000000C9458000C9480000C9480000C94800098
:100010000C9480000C9480000C9480000C94800060
:100020000C9480000C9480000C9480000C94800050
:100030000C9480000C9480000C9480000C94800040
:100040000C94B7040C9480000C9427050C940105C3
:100050000C9480000C9480000C9480000C94800020
:100060000C9459050C948000000000002500280025
:100070002B00040404040404040402020202020229
:10008000030303030303010204081020408001025C
:1000900004081020010204081020000000080002DB
:1000A00001000003040700000000000000007806C3
:1000B00011241FBECFEFD8E0DEBFCDBF11E0A0E01E
:1000C000B1E0E4E1F1E102C005900D92AA37B10779
:1000D000D9F722E0AAE7B1E001C01D92A43FB20720
:1000E000E1F710E0C8E5D0E004C02197FE010E94CE
:1000F0008208C735D107C9F70E94C2060C94880848
:100100000C94000090E0FC01E656FF4F2491FC01A6
:10011000EA57FF4F3491FC01EE58FF4FE491EE2374
:10012000C9F0222339F0233001F1A8F4213019F16C
:10013000223029F1F0E0EE0FFF1FE859FF4FA591A3
:10014000B4918FB7F894EC91611126C030953E239D
:100150003C938FBF08952730A9F02830C9F0243090
:1001600049F7809180008F7D03C0809180008F7758
:1001700080938000DFCF84B58F7784BDDBCF84B5DB
:100180008F7DFBCF8091B0008F778093B000D2CF6E
:100190008091B0008F7DF9CF3E2BDACF3FB7F89436
:1001A00080913B0290913C02A0913D02B0913E02B1
:1001B00026B5A89B05C02F3F19F00196A11DB11DC2
:1001C0003FBFBA2FA92F982F8827BC01CD01620FFE
:1001D000711D811D911D42E0660F771F881F991FB9
:1001E0004A95D1F708958F929F92AF92BF92CF9286
:1001F000DF92EF92FF924B015C010E94CE006B01F7
:100200007C010E94CE006C197D098E099F09683E11
:10021000734081059105A8F321E0821A9108A10895
:10022000B10888EEC80E83E0D81EE11CF11C8114D1
:100230009104A104B10429F7FF90EF90DF90CF90D3
:10024000BF90AF909F908F90089508950895AF92BA
:10025000BF92CF92DF92EF92FF920F931F93CF93B3
:10026000DF936C017B018B01040F151FEB015E0115
:10027000AE18BF08C017D10759F06991D601ED91AA
:10028000FC910190F081E02DC6010995892B79F749
:10029000C501DF91CF911F910F91FF90EF90DF90FB
:1002A000CF90BF90AF900895FC01538D448D252FC2
:1002B00030E0842F90E0821B930B541710F0CF9600
:1002C000089501970895FC01918D828D981761F032
:1002D000A28DAE0FBF2FB11D5D968C91928D9F5F49
:1002E0009F73928F90E008958FEF9FEF0895FC0128
:1002F000918D828D981731F0828DE80FF11D858DDB
:1003000090E008958FEF9FEF0895FC01918D228D6D
:10031000892F90E0805C9F4F821B91098F739927F2
:1003200008958FE392E00E94850121E0892B09F472
:1003300020E0822F089580E090E0892B29F00E9430
:10034000910181110C9400000895FC01A48DA80F67
:10035000B92FB11DA35ABF4F2C91848D90E0019607
:100360008F739927848FA689B7892C93A089B18927
:100370008C91837080648C93938D848D981306C0C8
:100380000288F389E02D80818F7D80830895EF922C
:10039000FF920F931F93CF93DF93EC0181E0888F3F
:1003A0009B8D8C8D98131AC0E889F989808185FF0F
:1003B00015C09FB7F894EE89FF896083E889F989B1
:1003C00080818370806480839FBF81E090E0DF91B3
:1003D000CF911F910F91FF90EF900895F62E0B8D06
:1003E00010E00F5F1F4F0F731127E02E8C8D8E11C1
:1003F0000CC00FB607FCFACFE889F989808185FF28
:10040000F5CFCE010E94A501F1CFEB8DEC0FFD2FB2
:10041000F11DE35AFF4FF0829FB7F8940B8FEA89E2
:10042000FB8980818062CFCFCF93DF93EC01888DF1
:100430008823B9F0AA89BB89E889F9898C9185FD5F
:1004400003C0808186FD0DC00FB607FCF7CF8C91ED
:1004500085FFF2CF808185FFEDCFCE010E94A501FF
:10046000E9CFDF91CF9108952091E201260F332744
:10047000331F21323105ECF420910602FC0190E09B
:1004800080E0243069F082E00895A091E20121919A
:10049000AC014E535E4FA40FB52FB11D2C930196A6
:1004A000861798F38091E201680F6093E20180E083
:1004B000089581E008951092060281E08093080279
:1004C0001092070261E082E10E94820061E083E114
:1004D0000E948200E9EBF0E080818E7F8083808142
:1004E0008D7F808388E48093B80085E48093BC008E
:1004F0000895CF93DF9391E09093C1018823B9F0E1
:10050000C091B800D091BA008091BC008A7B8093E2
:10051000BC0060E082E10E94820060E083E10E9412
:1005200082000E945B02D093BA00C093B800DF91B2
:10053000CF9108950895E091330280913202E81737
:1005400030F4F0E0E456FE4F808190E008958FEFA4
:100550009FEF089590913302809132022FEF3FEF89
:10056000981748F4E92FF0E0E456FE4F208130E080
:100570009F5F90933302C901089580913202909158
:100580003302891B990B0895CF92DF92EF92FF926D
:100590000F931F93CF93DF937C01CB018A012091AE
:1005A0009B01222389F0EB016B01C40ED51ECC15F3
:1005B000DD0569F06991D701ED91FC910190F08121
:1005C000E02DC7010995F3CF642F0E943402C801C2
:1005D000DF91CF911F910F91FF90EF90DF90CF901F
:1005E0000895CF93DF931F92CDB7DEB76983209133
:1005F0009B012223F9F020913002203258F021E0B3
:1006000030E0FC013383228390E080E00F90DF91A3
:10061000CF91089580913102E82FF0E0E558FE4F28
:10062000998190838F5F809331028093300281E0C3
:1006300090E0ECCF61E0CE0101960E943402F7CF4A
:10064000CF92DF92EF92FF920F931F93CF93DF939E
:10065000FC01C48121E020939B01C0937A01109298
:100660003102109230028385682B8CED92E00E945B
:10067000F102D0913002D13208F092C00E94CE0037
:100680006B017C0180910602811165C082E080933C
:10069000060281E0809308028FEF8093050210929A
:1006A0002A02D0932902ABE7B1E0E9E0F2E080E072
:1006B000D81385C010922B0280912B02CC0FC82B2F
:1006C000C0932B0280910702813009F07CC0109208
:1006D00007020E94CE006B017C0180912B02809367
:1006E000BB008091BD019091BE01A091BF01B0916E
:1006F000C001892B8A2B8B2B99F00E94CE00009190
:10070000BD011091BE012091BF013091C0016C1953
:100710007D098E099F090617170728073907E0F199
:100720008091BC0083FDD9CF85EC8093BC000E94F2
:10073000CE006B017C0180910602823009F445C035
:10074000809105028F3F61F180910502803241F175
:100750008091050225C08091BD019091BE01A091BC
:10076000BF01B091C001892B8A2B8B2B09F48ACF52
:100770000E94CE000091BD011091BE012091BF01E9
:100780003091C0016C197D098E099F090617170762
:100790002807390708F076CF8091BC010E947902C2
:1007A000109231021092300210929B01DF91CF9192
:1007B0001F910F91FF90EF90DF90CF9008959D9142
:1007C00091938F5F75CF85EEB0CF8091BD019091F1
:1007D000BE01A091BF01B091C001892B8A2B8B2B48
:1007E00009F4A9CF0E94CE000091BD011091BE0175
:1007F0002091BF013091C0016C197D098E099F09BC
:10080000061717072807390708F095CFC5CF0895B1
:1008100090E080E00895FC0101900020E9F7319715
:10082000AF01481B590BBC0188EE92E00C942701E4
:100830000F931F93CF938C01C62F0E9420036C2F20
:100840006460C8010E9420036C2F6B7FC8010E9466
:10085000200383EC90E00197F1F7CF911F910F9166
:1008600008950F931F93CF93DF938C01D62FC42F3E
:10087000607F642B0E94180480E1D89FB00111248E
:100880006C2BC801DF91CF911F910F910C9418042C
:10089000CF93DF93CDB7DEB728970FB6F894DEBFBE
:1008A0000FBECDBF98E0E0E0F1E0DE0111960190CF
:1008B0000D929A95E1F79091F102981708F48FEF55
:1008C00090E0880F991F21E030E02C0F3D1F820F30
:1008D000931FFC016081606840E088EE92E02896FA
:1008E0000FB6F894DEBF0FBECDBFDF91CF910C9451
:1008F000310441E00E94310481E090E0089585EDEB
:100900008093BC008091BD019091BE01A091BF0178
:10091000B091C0010796A11DB11D23E0B695A79522
:10092000979587952A95D1F72091BC0024FD03C0A7
:100930001092060208954091BD015091BE01609150
:10094000BF017091C001452B462B472B69F30097DF
:10095000A105B10541F02AE22A95F1F700C00197FF
:10096000A109B109E1CF8091BC010C9479021F92D9
:100970000F920FB60F9211242F933F938F939F9353
:10098000AF93BF938091370290913802A0913902C2
:10099000B0913A023091360223E0230F2D3758F5FB
:1009A0000196A11DB11D20933602809337029093CA
:1009B0003802A0933902B0933A0280913B029091A1
:1009C0003C02A0913D02B0913E020196A11DB11DD5
:1009D00080933B0290933C02A0933D02B0933E0271
:1009E000BF91AF919F918F913F912F910F900FBE2B
:1009F0000F901F90189526E8230F0296A11DB11D98
:100A0000D2CF1F920F920FB60F9211242F933F93C4
:100A10004F935F936F937F938F939F93AF93BF9306
:100A2000EF93FF938FE392E00E94A501FF91EF9176
:100A3000BF91AF919F918F917F916F915F914F91F6
:100A40003F912F910F900FBE0F901F9018951F92FE
:100A50000F920FB60F9211242F938F939F93EF93C2
:100A6000FF93E0914F02F09150028081E091550296
:100A7000F091560282FD1BC09081809158028F5FD9
:100A80008F7320915902821741F0E0915802F0E0F3
:100A9000E15CFD4F958F80935802FF91EF919F91FC
:100AA0008F912F910F900FBE0F901F9018958081FE
:100AB000F4CF1F920F920FB60F9211242F933F93F2
:100AC0004F935F936F937F938F939F93AF93BF9356
:100AD000EF93FF938091B900887F803609F44AC074
:100AE000F0F5883209F4A7C018F5803109F49BC0ED
:100AF000B8F4882309F4F9C0883009F494C0FF9150
:100B0000EF91BF91AF919F918F917F916F915F9185
:100B10004F913F912F910F900FBE0F901F901895FE
:100B2000883109F488C0803251F78093050214C0DF
:100B3000803409F49DC040F48033B9F38833F9F66A
:100B40008093050285ECB0C0803509F485C08835F6
:100B500009F496C0883499F60E947F04D0CF883972
:100B600009F48CC038F5883729F050F4883611F034
:100B7000803729F683E0809306021092040257C062
:100B8000883809F47BC0803919F0803809F0B7CF74
:100B900080910402803208F071C0E091040281E08B
:100BA0008E0F809304028091BB00F0E0EC51FE4F69
:100BB00080833DC0803B39F0E0F4803A09F479C08D
:100BC000883A09F09CCF84E0809306021092E301FA
:100BD0001092E201E0912E02F0912F02099580918E
:100BE000E20181110FC081E08093E2011092C20105
:100BF00009C0803C09F4A6CF883C09F4A3CF883B08
:100C000009F07DCFE091E30181E08E0F8093E30155
:100C1000F0E0EE53FE4F80818093BB009091E301A2
:100C20008091E20129C080912B028093BB0085EC6A
:100C30008093BC0064CF90912A028091290298177A
:100C400058F5E0912A0281E08E0F80932A02F0E0AD
:100C5000E75FFD4F8081E9CFE0912A0281E08E0FAE
:100C600080932A028091BB00F0E0E75FFD4F808314
:100C700090912A02809129029817C8F285E8D8CF6E
:100C8000E0912A0281E08E0F80932A028091BB00BE
:100C9000F0E0E75FFD4F80838091080281115CCF17
:100CA00081E08093070284EA8093BC0010920602E0
:100CB00026CF85EC8093BC0010920602809104023E
:100CC000803230F4E0910402F0E0EC51FE4F1082EB
:100CD0006091040270E0E0912C02F0912D0284EE0C
:100CE00091E00995109204020ACF1092050234CFC8
:100CF000EFE3F2E01382128288EE93E0A0E0B0E02E
:100D000084839583A683B7832CE031E031832083ED
:100D100025EC30E03587248724EC30E037872687C0
:100D200020EC30E0318B208B21EC30E0338B228BB8
:100D300022EC30E0358B248B26EC30E0378B268B91
:100D4000118E128E138E148EECEDF2E0138212824D
:100D500084839583A683B7838EE191E0918380831A
:100D6000E8EEF2E01382128280E391E091838083C7
:100D700087E2848380E1808782E08187128688E031
:100D800083870895CF93DF93CDB7DEB7A1970FB6D2
:100D9000F894DEBF0FBECDBF789484B5826084BD69
:100DA00084B5816084BD85B5826085BD85B581606F
:100DB00085BD80916E00816080936E0010928100ED
:100DC00080918100826080938100809181008160A8
:100DD0008093810080918000816080938000809169
:100DE000B10084608093B1008091B00081608093F5
:100DF000B00080917A00846080937A0080917A00BC
:100E0000826080937A0080917A00816080937A007A
:100E100080917A00806880937A001092C1001092CD
:100E200033021092320210923102109230020E946C
:100E30005B0285E291E090932F0280932E0286E27E
:100E400091E090932D0280932C021092ED028091FC
:100E5000F102823018F098E09093ED029091F20246
:100E6000992339F0813029F48091ED0284608093D8
:100E7000ED0262E370E080E090E00E94F300609198
:100E8000F30288EE92E00E94200368EE73E080E0B7
:100E900090E00E94F30060E388EE92E00E94180464
:100EA0000BE416E4C8010197F1F760E388EE92E0E5
:100EB0000E941804C8010197F1F760E388EE92E000
:100EC0000E94180483E592E00197F1F760E288EE52
:100ED00092E00E9418046091ED02606240E088EEAA
:100EE00092E00E94310484E08093EE0240E06CE0E6
:100EF00088EE92E00E94310440E061E088EE92E0EA
:100F00000E9431040BE31FE1C8010197F1F782E071
:100F1000F82EF092EF0240E066E088EE92E00E9448
:100F2000310440E062E088EE92E00E943104C801A2
:100F30000197F1F788E391E00E940B0481E00E94A1
:100F4000480489E491E00E940B0468EE73E080E0BD
:100F500090E00E94F30080E00E94480487E591E061
:100F60000E940B0481E00E94480488E691E00E9400
:100F70000B04E0914F02F0915002F082E0914B029D
:100F8000F0914C021082E0914D02F0914E028FECF4
:100F9000808310925702E0915302F091540286E050
:100FA0008083E0915102F0915202808180618083C0
:100FB000E0915102F0915202808188608083E0913B
:100FC0005102F0915202808180688083E091510249
:100FD000F091520280818F7D808390E4792E2AE007
:100FE000822E912CA12CB12C00E010E070927C009C
:100FF00080917A00806480937A0080917A0086FDE7
:10100000FCCFC0907800D0907900D0923502C09289
:10101000340281E00E9448040D2C000CEE08FF0809
:10102000F7FE38C041E06DE288EE92E00E943104A4
:1010300022273327A9012C193D094E095F0919A25E
:10104000CE0181967C01CA01B901A50194010E94DB
:101050006008605DF70162937F012115310541054C
:10106000510589F7E114F10419F0C7010E940B043E
:1010700064E170E080E090E00E94F300011511054A
:1010800009F4B4CF0E949101882309F4AFCF0E94E4
:101090000000ACCFA701960119A2CE0181967C0178
:1010A000CA01B901A50194010E946008605DF701C1
:1010B00062937F01211531054105510589F7D2CF92
:1010C000A1E21A2EAA1BBB1BFD010DC0AA1FBB1F4C
:1010D000EE1FFF1FA217B307E407F50720F0A21BBE
:1010E000B30BE40BF50B661F771F881F991F1A942B
:1010F00069F760957095809590959B01AC01BD0155
:10110000CF010895EE0FFF1F0590F491E02D099493
:04111000F894FFCF81
:10111400000040001400540000000000C701270133
:101124005401140285016301770100000000F102FB
:10113400C40208049A02BD02AA029B020000000035
:10114400790427010804070444756E6961686F62B5
:1011540069656C656B74726F0044756E69612045D6
:101164006C656B74726F00506F74656E73696F6D2C
:10117400657465723A202000202020202020202041
:0A1184002020202020202020000061
:00000001FF
