:100000000C945D000C9485000C9485000C94850084
:100010000C9485000C9485000C9485000C9485004C
:100020000C9485000C9485000C9485000C9485003C
:100030000C9485000C9485000C9485000C9485002C
:100040000C9479030C9485000C94E9030C94C3037D
:100050000C9485000C9485000C9485000C9485000C
:100060000C9485000C94850000000008000201003B
:100070000003040700000000000000000000000072
:10008000250028002B0000000000240027002A0083
:10009000040404040404040402020202020203032E
:1000A0000303030301020408102040800102040836
:1000B00010200102040810201B0411241FBECFEFE2
:1000C000D8E0DEBFCDBF11E0A0E0B1E0E0E9FBE0A9
:1000D00002C005900D92A034B107D9F722E0A0E448
:1000E000B1E001C01D92A030B207E1F710E0CDE50C
:1000F000D0E004C02197FE010E94C005CC35D10795
:10010000C9F70E9465040C94C6050C94000090E0A9
:10011000FC01EC55FF4F249180579F4FFC018491C7
:10012000882399F090E0880F991FFC01EA57FF4F50
:10013000A591B491FC01E458FF4F859194918FB73C
:10014000F894EC91E22BEC938FBF089590E0FC01C2
:10015000E859FF4F2491FC01EC55FF4F3491FC010D
:10016000E057FF4FE491EE23C9F0222339F023300A
:1001700001F1A8F4213019F1223029F1F0E0EE0F5D
:10018000FF1FE458FF4FA591B4918FB7F894EC91FD
:10019000611126C030953E233C938FBF08952730D0
:1001A000A9F02830C9F0243049F7809180008F7D74
:1001B00003C0809180008F7780938000DFCF84B56B
:1001C0008F7784BDDBCF84B58F7DFBCF8091B0006E
:1001D0008F778093B000D2CF8091B0008F7DF9CF20
:1001E0003E2BDACF3FB7F8948091470190914801B8
:1001F000A0914901B0914A0126B5A89B05C02F3FA7
:1002000019F00196A11DB11D3FBFBA2FA92F982F3C
:100210008827BC01CD01620F711D811D911D42E037
:10022000660F771F881F991F4A95D1F70895AF92DF
:10023000BF92CF92DF92EF92FF920F931F93CF93D3
:10024000DF936C017B018B01040F151FEB015E0135
:10025000AE18BF08C017D10759F06991D601ED91CA
:10026000FC910190F081E02DC6010995892B79F769
:10027000C501DF91CF911F910F91FF90EF90DF901B
:10028000CF90BF90AF900895FC01538D448D252FE2
:1002900030E0842F90E0821B930B541710F0CF9620
:1002A000089501970895FC01918D828D981761F052
:1002B000A28DAE0FBF2FB11D5D968C91928D9F5F69
:1002C0009F73928F90E008958FEF9FEF0895FC0148
:1002D000918D828D981731F0828DE80FF11D858DFB
:1002E00090E008958FEF9FEF0895FC01918D228D8E
:1002F000892F90E0805C9F4F821B91098F73992713
:1003000008958BE491E00E94750121E0892B09F4A6
:1003100020E0822F089580E090E0892B29F00E9450
:10032000810181110C9400000895FC01A48DA80F97
:10033000B92FB11DA35ABF4F2C91848D90E0019627
:100340008F739927848FA689B7892C93A089B18947
:100350008C91837080648C93938D848D981306C0E8
:100360000288F389E02D80818F7D80830895EF924C
:10037000FF920F931F93CF93DF93EC0181E0888F5F
:100380009B8D8C8D98131AC0E889F989808185FF2F
:1003900015C09FB7F894EE89FF896083E889F989D1
:1003A00080818370806480839FBF81E090E0DF91D3
:1003B000CF911F910F91FF90EF900895F62E0B8D26
:1003C00010E00F5F1F4F0F731127E02E8C8D8E11E1
:1003D0000CC00FB607FCFACFE889F989808185FF48
:1003E000F5CFCE010E949501F1CFEB8DEC0FFD2FE3
:1003F000F11DE35AFF4FF0829FB7F8940B8FEA8903
:10040000FB8980818062CFCFCF93DF93EC01888D11
:100410008823B9F0AA89BB89E889F9898C9185FD7F
:1004200003C0808186FD0DC00FB607FCF7CF8C910D
:1004300085FFF2CF808185FFEDCFCE010E9495012F
:10044000E9CFDF91CF910895089590E080E008957D
:10045000FC0101900020E9F73197AF01481B590BCF
:10046000BC0188EE91E00C941701CF93DF93EC016F
:1004700060E08E810E94A60061E08E810E94A6004D
:1004800060E08E810E94A6008BE891E00197F1F771
:10049000DF91CF910895CF92DF92EF92FF920F9369
:1004A0001F93CF93DF936C017C0187E0E80EF11C72
:1004B000D0E0C0E0062F10E0B8010C2E02C0759508
:1004C00067950A94E2F76170F70181917F010E94BC
:1004D000A6002196C430D10579F7C601DF91CF91EE
:1004E0001F910F91FF90EF90DF90CF900C94350209
:1004F000CF92DF92EF92FF920F931F93CF93DF93F0
:10050000EC01F62E642F8C810E94A6008D818F3F16
:1005100019F060E00E94A6000F2D10E08F8584FF87
:1005200025C06E0187E0C80ED11CF12CE12CB8016A
:100530000E2C02C0759567950A94E2F76170F6017A
:1005400081916F010E94A600FFEFEF1AFF0A88E079
:10055000E816F10461F7CE01DF91CF911F910F9161
:10056000FF90EF90DF90CF900C943502B80184E0BB
:10057000759567958A95E1F7CE010E944B026F2D24
:10058000CE01DF91CF911F910F91FF90EF90DF90FF
:10059000CF900C944B0240E0682F88EE91E00C94D1
:1005A0007802CF93DF93823029F49091F70198601D
:1005B0009093F7018093FB011092FC0180E48093FB
:1005C000FD0180E18093FE0180E58093FF01809131
:1005D000EC010E9487008091ED018F3F11F00E9495
:1005E00087008091EE010E948700C8EED1E09E0155
:1005F000285E31408091F70184FD0AC084E090E0DC
:100600002196281739073CF48E810E948700EFCF8E
:1006100088E090E0F5CF8BE39DE00197F1F760E093
:100620008091EC010E94A60060E08091EE010E94A2
:10063000A6008091ED018F3F19F060E00E94A600B6
:100640008091F70184FD39C063E088EE91E00E945B
:100650004B02CBE4D6E4CE010197F1F763E088EEDC
:1006600091E00E944B022197F1F763E088EE91E060
:100670000E944B0283E592E00197F1F762E088EE79
:1006800091E00E944B028091F70180620E94CB02B0
:1006900084E08093F8018CE00E94CB0281E00E940C
:1006A000CB028BE39FE10197F1F782E08093F901A0
:1006B00086E0DF91CF910C94CB0280620E94CB0246
:1006C0008BE496E40197F1F78091F70180620E9434
:1006D000CB0283E592E00197F1F78091F701806208
:1006E0000E94CB02D0CF41E00E94780281E090E0EE
:1006F00008951F920F920FB60F9211242F933F93DC
:100700008F939F93AF93BF93809143019091440146
:10071000A0914501B09146013091420123E0230FA1
:100720002D3758F50196A11DB11D209342018093EC
:10073000430190934401A0934501B09346018091F9
:10074000470190914801A0914901B0914A01019659
:10075000A11DB11D8093470190934801A0934901C9
:10076000B0934A01BF91AF919F918F913F912F918B
:100770000F900FBE0F901F90189526E8230F02963A
:10078000A11DB11DD2CF1F920F920FB60F9211244F
:100790002F933F934F935F936F937F938F939F9389
:1007A000AF93BF93EF93FF938BE491E00E94950189
:1007B000FF91EF91BF91AF919F918F917F916F9139
:1007C0005F914F913F912F910F900FBE0F901F900F
:1007D00018951F920F920FB60F9211242F938F939B
:1007E0009F93EF93FF93E0915B01F0915C01808117
:1007F000E0916101F091620182FD1BC090818091C6
:1008000064018F5F8F7320916501821741F0E09141
:100810006401F0E0E55BFE4F958F80936401FF91EA
:10082000EF919F918F912F910F900FBE0F901F907E
:1008300018958081F4CFEBE4F1E01382128288EE08
:1008400093E0A0E0B0E084839583A683B78384E03F
:1008500091E09183808385EC90E09587848784EC98
:1008600090E09787868780EC90E0918B808B81EC7D
:1008700090E0938B828B82EC90E0958B848B86EC5E
:1008800090E0978B868B118E128E138E148EE8EE6D
:10089000F1E01382128286E191E0918380838CE003
:1008A00084838FEF85838BE0868385E0878384E074
:1008B000808783E0818782E082871386148615868D
:1008C0001686178681E00C94D102CF93DF93CDB7C3
:1008D000DEB7A1970FB6F894DEBF0FBECDBF7894F8
:1008E00084B5826084BD84B5816084BD85B5826035
:1008F00085BD85B5816085BD80916E0081608093E6
:100900006E0010928100809181008260809381004E
:10091000809181008160809381008091800081605E
:10092000809380008091B10084608093B1008091B9
:10093000B00081608093B00080917A0084608093E1
:100940007A0080917A00826080937A0080917A00A8
:10095000816080937A0080917A00806880937A0029
:100960001092C10082E00E94D1028EE191E00E94CB
:100970002802E091FB01E23008F0C6C0E150F0E04F
:10098000E851FE4F848980680E94CB028FE291E09B
:100990000E942802E0915B01F0915C0182E080837B
:1009A000E0915701F09158011082E0915901F091C6
:1009B0005A018FEC808310926301E0915F01F09106
:1009C000600186E08083E0915D01F0915E018081AD
:1009D00080618083E0915D01F0915E01808188609B
:1009E0008083E0915D01F0915E0180818068808369
:1009F000E0915D01F0915E0180818F7D808390E4C4
:100A0000392E2AE0822E912CA12CB12C00E010E08E
:100A100030927C0080917A00806480937A0080918B
:100A20007A0086FDFCCFC0907800D0907900D092FB
:100A30004101C0924001E091FB01E23008F066C044
:100A4000E150F0E0E851FE4F848980680E94CB02BB
:100A50000D2C000CEE08FF08F7FE5AC041E06DE2D5
:100A600088EE91E00E94780222273327A9012C19F1
:100A70003D094E095F0919A2CE0181967C01CA0188
:100A8000B901A50194010E949E05605DF701629382
:100A90007F01211531054105510589F7E114F10464
:100AA00019F0C7010E9428020E94F2002B013C01AC
:100AB00084E1C82ED12CE12CF12C0E94F2006419A3
:100AC000750986099709683E734081059105A8F369
:100AD000F1E0CF1AD108E108F10828EE420E23E038
:100AE000521E611C711CC114D104E104F10429F7E8
:100AF0000115110509F48CCF0E948101882309F4A6
:100B000087CF0E94000084CFE1E039CFE1E099CFA8
:100B1000A701960119A2CE0181967C01CA01B901F3
:100B2000A50194010E949E05605DF70162937F011B
:100B3000211531054105510589F7B0CFA1E21A2EE3
:100B4000AA1BBB1BFD010DC0AA1FBB1FEE1FFF1F71
:100B5000A217B307E407F50720F0A21BB30BE40BC1
:100B6000F50B661F771F881F991F1A9469F7609508
:100B70007095809590959B01AC01BD01CF010895C2
:100B8000EE0FFF1F0590F491E02D0994F894FFCF2C
:100B900000000000B7011701440104027501530170
:100BA0006701000000007303170125022402506F43
:100BB00074656E73696F6D657465723A20200020EC
:100BC0002020202020202020202020202020200045
:00000001FF
