:100000000C945D000C9485000C9485000C94850084
:100010000C9485000C9485000C9485000C9485004C
:100020000C9485000C9485000C9485000C9485003C
:100030000C9485000C9485000C9485000C9485002C
:100040000C94CB030C9485000C943B040C94150485
:100050000C9485000C9485000C9485000C9485000C
:100060000C9485000C94850000000008000201003B
:100070000003040700000000000000000000000072
:10008000250028002B0000000000240027002A0083
:10009000040404040404040402020202020203032E
:1000A0000303030301020408102040800102040836
:1000B00010200102040810206D0411241FBECFEF90
:1000C000D8E0DEBFCDBF11E0A0E0B1E0E4EEFBE0A0
:1000D00002C005900D92A036B107D9F722E0A0E644
:1000E000B1E001C01D92A032B207E1F710E0CDE50A
:1000F000D0E004C02197FE010E94E505CC35D10770
:10010000C9F70E94B7040C94F0050C94000090E02D
:10011000FC01EC55FF4F2491FC01E057FF4F849107
:10012000882399F090E0880F991FFC01EA57FF4F50
:10013000A591B491FC01E458FF4F859194918FB73C
:10014000F894EC91E22BEC938FBF089590E0FC01C2
:10015000E859FF4F2491FC01EC55FF4F3491FC010D
:10016000E057FF4FE491EE2309F43CC0222339F11C
:10017000233091F038F42130A9F0223001F584B514
:100180008F7D12C0273091F02830A1F02430B9F4CF
:10019000809180008F7D03C0809180008F77809355
:1001A00080000DC084B58F7784BD09C08091B000F8
:1001B0008F7703C08091B0008F7D8093B000F0E016
:1001C000EE0FFF1FE458FF4FA591B4919FB7F8942D
:1001D000611104C08C913095382302C0EC913E2B04
:1001E0003C939FBF08953FB7F89480916701909129
:1001F0006801A0916901B0916A0126B5A89B05C06C
:100200002F3F19F00196A11DB11D3FBFBA2FA92F95
:10021000982F8827820F911DA11DB11DBC01CD0112
:1002200042E0660F771F881F991F4A95D1F70895FE
:100230008F929F92AF92BF92CF92DF92EF92FF92F6
:100240006B017C010E94F3004B015C01C114D104DD
:10025000E104F104F1F00E94F300DC01CB01881904
:100260009909AA09BB09883E9340A105B10570F31D
:1002700021E0C21AD108E108F10888EE880E83E077
:10028000981EA11CB11CC114D104E104F10419F79A
:10029000DDCFFF90EF90DF90CF90BF90AF909F9019
:1002A0008F900895CF92DF92EF92FF920F931F935A
:1002B000CF93DF936C017A018B01C0E0D0E0CE15C3
:1002C000DF0581F0D8016D918D01D601ED91FC9192
:1002D0000190F081E02DC6010995892B11F021963E
:1002E000EECF7E01C701DF91CF911F910F91FF905B
:1002F000EF90DF90CF900895FC01538D448D252F12
:1003000030E0842F90E0821B930B541710F0CF96AF
:10031000089501970895FC01918D828D981761F0E1
:10032000828DDF01A80FB11D5D968C91928D9F5F2C
:100330009F73928F90E008958FEF9FEF0895FC01D7
:10034000918D828D981731F0828DE80FF11D858D8A
:1003500090E008958FEF9FEF0895FC01918D228D1D
:10036000892F90E0805C9F4F821B91098F739927A2
:1003700008958BE691E00E94AD0121E0892B09F4FC
:1003800020E0822F0895FC01848DDF01A80FB11DAC
:10039000A35ABF4F2C91848D90E001968F739927BB
:1003A000848FA689B7892C93A089B1898C91837099
:1003B00080648C93938D848D981306C00288F38992
:1003C000E02D80818F7D80830895EF92FF920F93BF
:1003D0001F93CF93DF93EC0181E0888F9B8D8C8DF1
:1003E000981305C0E889F989808185FD26C0F62E1D
:1003F0000B8D10E00F5F1F4F0F731127E02E8C8DB8
:10040000E8120CC00FB607FCFACFE889F9898081A1
:1004100085FFF5CFCE010E94C301F1CF8B8DFE0188
:10042000E80FF11DE35AFF4FF0829FB7F8940B8F4E
:10043000EA89FB89808180620AC09FB7F894EE89BF
:10044000FF896083E889F989808183708064808373
:100450009FBF81E090E0DF91CF911F910F91FF90BE
:10046000EF900895CF93DF93EC01888D8823C9F036
:10047000EA89FB89808185FD05C0A889B9898C91AD
:1004800086FD0FC00FB607FCF5CF808185FFF2CF48
:10049000A889B9898C9185FFEDCFCE010E94C30157
:1004A000E7CFDF91CF91089580E090E0892B29F08C
:1004B0000E94B90181110C9400000895CF93DF933D
:1004C000EC0160E08E810E94A60061E08E810E94B6
:1004D000A60060E08E810E94A6008BE891E0019763
:1004E000F1F7DF91CF910895CF92DF92EF92FF92D3
:1004F0000F931F93CF93DF936C017C0187E0E80E8D
:10050000F11CC0E0D0E0062F10E0B8010C2E02C0B4
:10051000759567950A94E2F76170F70181917F0103
:100520000E94A6002196C430D10579F7C601DF915B
:10053000CF911F910F91FF90EF90DF90CF900C948F
:100540005E02CF92DF92EF92FF920F931F93CF93B1
:10055000DF93EC01F62E642F8C810E94A6008D8122
:100560008F3F19F060E00E94A6008F850F2D10E0EC
:1005700084FF25C06E0187E0C80ED11CE12CF12C50
:10058000B8010E2C02C0759567950A94E2F7617068
:10059000F60181916F010E94A600FFEFEF1AFF0A9A
:1005A00088E0E816F10461F7CE01DF91CF911F9149
:1005B0000F91FF90EF90DF90CF900C945E02B80106
:1005C00084E0759567958A95E1F7CE010E947402E3
:1005D0006F2DCE01DF91CF911F910F91FF90EF9082
:1005E000DF90CF900C94740240E0682F88E092E096
:1005F0000C94A102CF93DF93823028F090911702E0
:1006000098609093170280931B0210921C0280E462
:1006100080931D0280E180931E0280E580931F027B
:1006200080910C020E94870080910D028F3F11F093
:100630000E94870080910E020E948700C8E0D2E0ED
:100640009E01285032408091170284FD03C084E04F
:1006500090E002C088E090E021962817390724F442
:100660008E810E948700ECCF8BE39DE00197F1F72C
:1006700060E080910C020E94A60060E080910E0272
:100680000E94A60080910D028F3F19F060E00E9449
:10069000A6008091170284FD20C063E088E092E00C
:1006A0000E947402CBE4D6E4CE010197F1F763E037
:1006B00088E092E00E9474022197F1F763E088E0FD
:1006C00092E00E94740283E592E00197F1F762E004
:1006D00088E092E00E94740215C080620E94F402D9
:1006E0008BE496E40197F1F78091170280620E94F3
:1006F000F40283E592E00197F1F78091170280629E
:100700000E94F4028091170280620E94F40284E049
:10071000809318028CE00E94F40281E00E94F402AF
:100720008BE39FE10197F1F782E08093190286E065
:10073000DF91CF910C94F402843008F083E0909123
:100740001B02891710F08FEF890FE82FF0E0E85FA8
:10075000FD4F848980680C94F40241E00E94A1025C
:1007600081E090E00895089580E090E0089500977A
:1007700069F0FC0101900020E9F73197AF01481BB7
:10078000590BBC0188E092E00C94520180E090E0AB
:1007900008950E94EB051F920F920FB60F9211243D
:1007A0002F933F938F939F93AF93BF938091630158
:1007B00090916401A0916501B09166013091620150
:1007C00023E0230F2D3720F40196A11DB11D05C094
:1007D00026E8230F0296A11DB11D2093620180938C
:1007E000630190936401A0936501B09366018091C9
:1007F000670190916801A0916901B0916A01019629
:10080000A11DB11D8093670190936801A0936901B8
:10081000B0936A01BF91AF919F918F913F912F91BA
:100820000F900FBE0F901F9018951F920F920FB64A
:100830000F9211242F933F934F935F936F937F9366
:100840008F939F93AF93BF93EF93FF938BE691E0CA
:100850000E94C301FF91EF91BF91AF919F918F9142
:100860007F916F915F914F913F912F910F900FBEAC
:100870000F901F9018951F920F920FB60F92112490
:100880002F938F939F93EF93FF93E0917B01F091D0
:100890007C018081E0918101F091820182FD12C092
:1008A0009081809184018F5F8F73209185018217E1
:1008B00051F0E0918401F0E0E559FE4F958F80936F
:1008C000840101C08081FF91EF919F918F912F91C1
:1008D0000F900FBE0F901F901895EBE6F1E013827A
:1008E000128288EE93E0A0E0B0E084839583A68333
:1008F000B78384E091E09183808385EC90E09587D5
:10090000848784EC90E09787868780EC90E0918BD9
:10091000808B81EC90E0938B828B82EC90E0958BC6
:10092000848B86EC90E0978B868B118E128E138EC3
:10093000148EE8E0F2E01382128286E191E0918366
:1009400080838CE084838FEF85838BE0868385E0D2
:10095000878384E0808783E0818782E082871386B3
:10096000148615861686178681E00C94FA02CF93BA
:10097000DF93CDB7DEB7A1970FB6F894DEBF0FBEF9
:10098000CDBF789484B5826084BD84B5816084BD18
:1009900085B5826085BD85B5816085BD80916E001D
:1009A000816080936E00109281008091810082604E
:1009B000809381008091810081608093810080918B
:1009C00080008160809380008091B100846080937A
:1009D000B1008091B00081608093B00080917A0076
:1009E000846080937A0080917A00826080937A009C
:1009F00080917A00816080937A0080917A0080688B
:100A000080937A001092C10082E00E94FA028EE187
:100A100091E00E94B70381E00E949C038FE291E085
:100A20000E94B70368EE73E080E090E00E94180136
:100A300080E00E949C038DE391E00E94B70381E077
:100A40000E949C038EE491E00E94B703E0917B0139
:100A5000F0917C0182E08083E0917701F091780150
:100A60001082E0917901F0917A018FEC80831092ED
:100A70008301E0917F01F091800186E08083E09125
:100A80007D01F0917E01808180618083E0917D0114
:100A9000F0917E01808188608083E0917D01F091FA
:100AA0007E01808180688083E0917D01F0917E01EC
:100AB00080818F7D808380E4B82E9AE0C92ED12C6E
:100AC000E12CF12CB0927C0080917A0080648093BC
:100AD0007A0080917A0086FDFCCF009178008091A9
:100AE000790010E0182B109361010093600181E000
:100AF0000E949C032801012E000C6608770817FF4E
:100B000021C041E06DE288E092E00E94A10222272C
:100B10003327A901241935094609570919A28E015D
:100B20000F5D1F4FCA01B901A70196010E94C305BD
:100B3000605DF80162938F01211531054105510572
:100B400089F715C0A301920119A28E010F5D1F4FF5
:100B5000CA01B901A70196010E94C305605DF801B1
:100B600062938F01211531054105510589F7C801AF
:100B70000E94B70364E170E080E090E00E941801F9
:100B80000E9454029FCFA1E21A2EAA1BBB1BFD019B
:100B90000DC0AA1FBB1FEE1FFF1FA217B307E4075C
:100BA000F50720F0A21BB30BE40BF50B661F771FB4
:100BB000881F991F1A9469F7609570958095909594
:100BC0009B01AC01BD01CF010895EE0FFF1F059001
:100BD000F491E02D099481E090E0F8940C94F005F4
:040BE000F894FFCFB7
:100BE40000000000E50152017C013202AD018B01DD
:100BF4009F0100000000AD035201B403B303447528
:100C04006E6961686F6269656C656B74726F0044CC
:100C1400756E696120456C656B74726F00506F74FA
:100C2400656E73696F6D657465723A2020002020CB
:100C340020202020202020202020202020200000F0
:00000001FF
